{
  "contractName": "SumoPets",
  "abi": [
    {
      "inputs": [
        {
          "internalType": "address",
          "name": "_VRFCoordinator",
          "type": "address"
        },
        {
          "internalType": "address",
          "name": "_LinkToken",
          "type": "address"
        },
        {
          "internalType": "bytes32",
          "name": "_keyhash",
          "type": "bytes32"
        }
      ],
      "stateMutability": "nonpayable",
      "type": "constructor"
    },
    {
      "anonymous": false,
      "inputs": [
        {
          "indexed": true,
          "internalType": "address",
          "name": "owner",
          "type": "address"
        },
        {
          "indexed": true,
          "internalType": "address",
          "name": "approved",
          "type": "address"
        },
        {
          "indexed": true,
          "internalType": "uint256",
          "name": "tokenId",
          "type": "uint256"
        }
      ],
      "name": "Approval",
      "type": "event"
    },
    {
      "anonymous": false,
      "inputs": [
        {
          "indexed": true,
          "internalType": "address",
          "name": "owner",
          "type": "address"
        },
        {
          "indexed": true,
          "internalType": "address",
          "name": "operator",
          "type": "address"
        },
        {
          "indexed": false,
          "internalType": "bool",
          "name": "approved",
          "type": "bool"
        }
      ],
      "name": "ApprovalForAll",
      "type": "event"
    },
    {
      "anonymous": false,
      "inputs": [
        {
          "indexed": true,
          "internalType": "address",
          "name": "previousOwner",
          "type": "address"
        },
        {
          "indexed": true,
          "internalType": "address",
          "name": "newOwner",
          "type": "address"
        }
      ],
      "name": "OwnershipTransferred",
      "type": "event"
    },
    {
      "anonymous": false,
      "inputs": [
        {
          "indexed": true,
          "internalType": "address",
          "name": "from",
          "type": "address"
        },
        {
          "indexed": true,
          "internalType": "address",
          "name": "to",
          "type": "address"
        },
        {
          "indexed": true,
          "internalType": "uint256",
          "name": "tokenId",
          "type": "uint256"
        }
      ],
      "name": "Transfer",
      "type": "event"
    },
    {
      "inputs": [],
      "name": "LinkToken",
      "outputs": [
        {
          "internalType": "address",
          "name": "",
          "type": "address"
        }
      ],
      "stateMutability": "view",
      "type": "function",
      "constant": true
    },
    {
      "inputs": [],
      "name": "VRFCoordinator",
      "outputs": [
        {
          "internalType": "address",
          "name": "",
          "type": "address"
        }
      ],
      "stateMutability": "view",
      "type": "function",
      "constant": true
    },
    {
      "inputs": [
        {
          "internalType": "address",
          "name": "to",
          "type": "address"
        },
        {
          "internalType": "uint256",
          "name": "tokenId",
          "type": "uint256"
        }
      ],
      "name": "approve",
      "outputs": [],
      "stateMutability": "nonpayable",
      "type": "function"
    },
    {
      "inputs": [
        {
          "internalType": "address",
          "name": "owner",
          "type": "address"
        }
      ],
      "name": "balanceOf",
      "outputs": [
        {
          "internalType": "uint256",
          "name": "",
          "type": "uint256"
        }
      ],
      "stateMutability": "view",
      "type": "function",
      "constant": true
    },
    {
      "inputs": [],
      "name": "baseURI",
      "outputs": [
        {
          "internalType": "string",
          "name": "",
          "type": "string"
        }
      ],
      "stateMutability": "view",
      "type": "function",
      "constant": true
    },
    {
      "inputs": [
        {
          "internalType": "uint256",
          "name": "",
          "type": "uint256"
        }
      ],
      "name": "characters",
      "outputs": [
        {
          "internalType": "uint256",
          "name": "weight",
          "type": "uint256"
        },
        {
          "internalType": "uint256",
          "name": "squishiness",
          "type": "uint256"
        },
        {
          "internalType": "uint256",
          "name": "hunger",
          "type": "uint256"
        },
        {
          "internalType": "uint256",
          "name": "experience",
          "type": "uint256"
        },
        {
          "internalType": "string",
          "name": "name",
          "type": "string"
        }
      ],
      "stateMutability": "view",
      "type": "function",
      "constant": true
    },
    {
      "inputs": [
        {
          "internalType": "uint256",
          "name": "tokenId",
          "type": "uint256"
        }
      ],
      "name": "getApproved",
      "outputs": [
        {
          "internalType": "address",
          "name": "",
          "type": "address"
        }
      ],
      "stateMutability": "view",
      "type": "function",
      "constant": true
    },
    {
      "inputs": [
        {
          "internalType": "address",
          "name": "owner",
          "type": "address"
        },
        {
          "internalType": "address",
          "name": "operator",
          "type": "address"
        }
      ],
      "name": "isApprovedForAll",
      "outputs": [
        {
          "internalType": "bool",
          "name": "",
          "type": "bool"
        }
      ],
      "stateMutability": "view",
      "type": "function",
      "constant": true
    },
    {
      "inputs": [],
      "name": "name",
      "outputs": [
        {
          "internalType": "string",
          "name": "",
          "type": "string"
        }
      ],
      "stateMutability": "view",
      "type": "function",
      "constant": true
    },
    {
      "inputs": [
        {
          "internalType": "bytes32",
          "name": "",
          "type": "bytes32"
        }
      ],
      "name": "nonces",
      "outputs": [
        {
          "internalType": "uint256",
          "name": "",
          "type": "uint256"
        }
      ],
      "stateMutability": "view",
      "type": "function",
      "constant": true
    },
    {
      "inputs": [],
      "name": "owner",
      "outputs": [
        {
          "internalType": "address",
          "name": "",
          "type": "address"
        }
      ],
      "stateMutability": "view",
      "type": "function",
      "constant": true
    },
    {
      "inputs": [
        {
          "internalType": "uint256",
          "name": "tokenId",
          "type": "uint256"
        }
      ],
      "name": "ownerOf",
      "outputs": [
        {
          "internalType": "address",
          "name": "",
          "type": "address"
        }
      ],
      "stateMutability": "view",
      "type": "function",
      "constant": true
    },
    {
      "inputs": [],
      "name": "randomResult",
      "outputs": [
        {
          "internalType": "uint256",
          "name": "",
          "type": "uint256"
        }
      ],
      "stateMutability": "view",
      "type": "function",
      "constant": true
    },
    {
      "inputs": [
        {
          "internalType": "bytes32",
          "name": "requestId",
          "type": "bytes32"
        },
        {
          "internalType": "uint256",
          "name": "randomness",
          "type": "uint256"
        }
      ],
      "name": "rawFulfillRandomness",
      "outputs": [],
      "stateMutability": "nonpayable",
      "type": "function"
    },
    {
      "inputs": [],
      "name": "renounceOwnership",
      "outputs": [],
      "stateMutability": "nonpayable",
      "type": "function"
    },
    {
      "inputs": [
        {
          "internalType": "bytes32",
          "name": "_keyHash",
          "type": "bytes32"
        },
        {
          "internalType": "uint256",
          "name": "_fee",
          "type": "uint256"
        },
        {
          "internalType": "uint256",
          "name": "_seed",
          "type": "uint256"
        }
      ],
      "name": "requestRandomness",
      "outputs": [
        {
          "internalType": "bytes32",
          "name": "requestId",
          "type": "bytes32"
        }
      ],
      "stateMutability": "nonpayable",
      "type": "function"
    },
    {
      "inputs": [
        {
          "internalType": "address",
          "name": "from",
          "type": "address"
        },
        {
          "internalType": "address",
          "name": "to",
          "type": "address"
        },
        {
          "internalType": "uint256",
          "name": "tokenId",
          "type": "uint256"
        }
      ],
      "name": "safeTransferFrom",
      "outputs": [],
      "stateMutability": "nonpayable",
      "type": "function"
    },
    {
      "inputs": [
        {
          "internalType": "address",
          "name": "from",
          "type": "address"
        },
        {
          "internalType": "address",
          "name": "to",
          "type": "address"
        },
        {
          "internalType": "uint256",
          "name": "tokenId",
          "type": "uint256"
        },
        {
          "internalType": "bytes",
          "name": "_data",
          "type": "bytes"
        }
      ],
      "name": "safeTransferFrom",
      "outputs": [],
      "stateMutability": "nonpayable",
      "type": "function"
    },
    {
      "inputs": [
        {
          "internalType": "address",
          "name": "operator",
          "type": "address"
        },
        {
          "internalType": "bool",
          "name": "approved",
          "type": "bool"
        }
      ],
      "name": "setApprovalForAll",
      "outputs": [],
      "stateMutability": "nonpayable",
      "type": "function"
    },
    {
      "inputs": [
        {
          "internalType": "bytes4",
          "name": "interfaceId",
          "type": "bytes4"
        }
      ],
      "name": "supportsInterface",
      "outputs": [
        {
          "internalType": "bool",
          "name": "",
          "type": "bool"
        }
      ],
      "stateMutability": "view",
      "type": "function",
      "constant": true
    },
    {
      "inputs": [],
      "name": "symbol",
      "outputs": [
        {
          "internalType": "string",
          "name": "",
          "type": "string"
        }
      ],
      "stateMutability": "view",
      "type": "function",
      "constant": true
    },
    {
      "inputs": [
        {
          "internalType": "uint256",
          "name": "index",
          "type": "uint256"
        }
      ],
      "name": "tokenByIndex",
      "outputs": [
        {
          "internalType": "uint256",
          "name": "",
          "type": "uint256"
        }
      ],
      "stateMutability": "view",
      "type": "function",
      "constant": true
    },
    {
      "inputs": [
        {
          "internalType": "address",
          "name": "owner",
          "type": "address"
        },
        {
          "internalType": "uint256",
          "name": "index",
          "type": "uint256"
        }
      ],
      "name": "tokenOfOwnerByIndex",
      "outputs": [
        {
          "internalType": "uint256",
          "name": "",
          "type": "uint256"
        }
      ],
      "stateMutability": "view",
      "type": "function",
      "constant": true
    },
    {
      "inputs": [
        {
          "internalType": "uint256",
          "name": "tokenId",
          "type": "uint256"
        }
      ],
      "name": "tokenURI",
      "outputs": [
        {
          "internalType": "string",
          "name": "",
          "type": "string"
        }
      ],
      "stateMutability": "view",
      "type": "function",
      "constant": true
    },
    {
      "inputs": [],
      "name": "totalSupply",
      "outputs": [
        {
          "internalType": "uint256",
          "name": "",
          "type": "uint256"
        }
      ],
      "stateMutability": "view",
      "type": "function",
      "constant": true
    },
    {
      "inputs": [
        {
          "internalType": "address",
          "name": "from",
          "type": "address"
        },
        {
          "internalType": "address",
          "name": "to",
          "type": "address"
        },
        {
          "internalType": "uint256",
          "name": "tokenId",
          "type": "uint256"
        }
      ],
      "name": "transferFrom",
      "outputs": [],
      "stateMutability": "nonpayable",
      "type": "function"
    },
    {
      "inputs": [
        {
          "internalType": "address",
          "name": "newOwner",
          "type": "address"
        }
      ],
      "name": "transferOwnership",
      "outputs": [],
      "stateMutability": "nonpayable",
      "type": "function"
    },
    {
      "inputs": [
        {
          "internalType": "uint256",
          "name": "userProvidedSeed",
          "type": "uint256"
        },
        {
          "internalType": "string",
          "name": "name",
          "type": "string"
        }
      ],
      "name": "requestNewRandomCharacter",
      "outputs": [
        {
          "internalType": "bytes32",
          "name": "",
          "type": "bytes32"
        }
      ],
      "stateMutability": "nonpayable",
      "type": "function"
    },
    {
      "inputs": [
        {
          "internalType": "uint256",
          "name": "tokenId",
          "type": "uint256"
        }
      ],
      "name": "getTokenURI",
      "outputs": [
        {
          "internalType": "string",
          "name": "",
          "type": "string"
        }
      ],
      "stateMutability": "view",
      "type": "function",
      "constant": true
    },
    {
      "inputs": [
        {
          "internalType": "uint256",
          "name": "tokenId",
          "type": "uint256"
        },
        {
          "internalType": "string",
          "name": "_tokenURI",
          "type": "string"
        }
      ],
      "name": "setTokenURI",
      "outputs": [],
      "stateMutability": "nonpayable",
      "type": "function"
    },
    {
      "inputs": [
        {
          "internalType": "uint256",
          "name": "tokenId",
          "type": "uint256"
        }
      ],
      "name": "getLevel",
      "outputs": [
        {
          "internalType": "uint256",
          "name": "",
          "type": "uint256"
        }
      ],
      "stateMutability": "view",
      "type": "function",
      "constant": true
    },
    {
      "inputs": [],
      "name": "getNumberOfCharacters",
      "outputs": [
        {
          "internalType": "uint256",
          "name": "",
          "type": "uint256"
        }
      ],
      "stateMutability": "view",
      "type": "function",
      "constant": true
    },
    {
      "inputs": [
        {
          "internalType": "uint256",
          "name": "tokenId",
          "type": "uint256"
        }
      ],
      "name": "getCharacterOverView",
      "outputs": [
        {
          "internalType": "string",
          "name": "",
          "type": "string"
        },
        {
          "internalType": "uint256",
          "name": "",
          "type": "uint256"
        },
        {
          "internalType": "uint256",
          "name": "",
          "type": "uint256"
        },
        {
          "internalType": "uint256",
          "name": "",
          "type": "uint256"
        }
      ],
      "stateMutability": "view",
      "type": "function",
      "constant": true
    },
    {
      "inputs": [
        {
          "internalType": "uint256",
          "name": "tokenId",
          "type": "uint256"
        }
      ],
      "name": "getCharacterStats",
      "outputs": [
        {
          "internalType": "uint256",
          "name": "",
          "type": "uint256"
        },
        {
          "internalType": "uint256",
          "name": "",
          "type": "uint256"
        },
        {
          "internalType": "uint256",
          "name": "",
          "type": "uint256"
        },
        {
          "internalType": "uint256",
          "name": "",
          "type": "uint256"
        }
      ],
      "stateMutability": "view",
      "type": "function",
      "constant": true
    }
  ],
  "bytecode": "0x60806040523480156200001157600080fd5b50604051620047d6380380620047d6833981810160405260608110156200003757600080fd5b8101908080519060200190929190805190602001909291908051906020019092919050505082826040518060400160405280600881526020017f53756d6f506574730000000000000000000000000000000000000000000000008152506040518060400160405280600481526020017f53554d4f00000000000000000000000000000000000000000000000000000000815250620000e26301ffc9a760e01b6200033460201b60201c565b8160069080519060200190620000fa92919062000445565b5080600790805190602001906200011392919062000445565b506200012c6380ac58cd60e01b6200033460201b60201c565b62000144635b5e139f60e01b6200033460201b60201c565b6200015c63780e9d6360e01b6200033460201b60201c565b505081600b60006101000a81548173ffffffffffffffffffffffffffffffffffffffff021916908373ffffffffffffffffffffffffffffffffffffffff16021790555080600a60006101000a81548173ffffffffffffffffffffffffffffffffffffffff021916908373ffffffffffffffffffffffffffffffffffffffff16021790555050506000620001f46200043d60201b60201c565b905080600d60006101000a81548173ffffffffffffffffffffffffffffffffffffffff021916908373ffffffffffffffffffffffffffffffffffffffff1602179055508073ffffffffffffffffffffffffffffffffffffffff16600073ffffffffffffffffffffffffffffffffffffffff167f8be0079c531659141344cd1fd0a4f28419497f9722a3daafe3b4186f6b6457e060405160405180910390a35082601160006101000a81548173ffffffffffffffffffffffffffffffffffffffff021916908373ffffffffffffffffffffffffffffffffffffffff16021790555081601260006101000a81548173ffffffffffffffffffffffffffffffffffffffff021916908373ffffffffffffffffffffffffffffffffffffffff16021790555080600e8190555067016345785d8a0000600f81905550505050620004f4565b63ffffffff60e01b817bffffffffffffffffffffffffffffffffffffffffffffffffffffffff19161415620003d1576040517f08c379a000000000000000000000000000000000000000000000000000000000815260040180806020018281038252601c8152602001807f4552433136353a20696e76616c696420696e746572666163652069640000000081525060200191505060405180910390fd5b6001600080837bffffffffffffffffffffffffffffffffffffffffffffffffffffffff19167bffffffffffffffffffffffffffffffffffffffffffffffffffffffff1916815260200190815260200160002060006101000a81548160ff02191690831515021790555050565b600033905090565b828054600181600116156101000203166002900490600052602060002090601f016020900481019282601f106200048857805160ff1916838001178555620004b9565b82800160010185558215620004b9579182015b82811115620004b85782518255916020019190600101906200049b565b5b509050620004c89190620004cc565b5090565b620004f191905b80821115620004ed576000816000905550600101620004d3565b5090565b90565b6142d280620005046000396000f3fe608060405234801561001057600080fd5b50600436106102065760003560e01c806362d36dec1161011a57806394985ddd116100ad578063b88d4fde1161007c578063b88d4fde14610d64578063c87b56dd14610e69578063dc6cfe1014610f10578063e985e9c514610f66578063f2fde38b14610fe257610206565b806394985ddd14610c1757806395d89b4114610c4f5780639e317f1214610cd2578063a22cb46514610d1457610206565b806370a08231116100e957806370a0823114610b29578063715018a614610b8157806386481d4014610b8b5780638da5cb5b14610bcd57610206565b806362d36dec146109c35780636352211e146109e15780636c0360eb14610a4f5780636fe0c04614610ad257610206565b80632f745c591161019d57806342842e0e1161016c57806342842e0e1461074a5780634810bc59146107b85780634f6ccce71461087b5780634f8e2fdf146108bd5780634f95b5f01461090757610206565b80632f745c59146105d957806333b608631461063b5780633bb3a24d1461068557806342619f661461072c57610206565b8063095ea7b3116101d9578063095ea7b31461043a578063162094c41461048857806318160ddd1461054d57806323b872dd1461056b57610206565b806301ffc9a71461020b57806306396dbe1461027057806306fdde0314610349578063081812fc146103cc575b600080fd5b6102566004803603602081101561022157600080fd5b8101908080357bffffffffffffffffffffffffffffffffffffffffffffffffffffffff19169060200190929190505050611026565b604051808215151515815260200191505060405180910390f35b6103336004803603604081101561028657600080fd5b8101908080359060200190929190803590602001906401000000008111156102ad57600080fd5b8201836020820111156102bf57600080fd5b803590602001918460018302840111640100000000831117156102e157600080fd5b91908080601f016020809104026020016040519081016040528093929190818152602001838380828437600081840152601f19601f82011690508083019250505050505050919291929050505061108d565b6040518082815260200191505060405180910390f35b61035161125a565b6040518080602001828103825283818151815260200191508051906020019080838360005b83811015610391578082015181840152602081019050610376565b50505050905090810190601f1680156103be5780820380516001836020036101000a031916815260200191505b509250505060405180910390f35b6103f8600480360360208110156103e257600080fd5b81019080803590602001909291905050506112fc565b604051808273ffffffffffffffffffffffffffffffffffffffff1673ffffffffffffffffffffffffffffffffffffffff16815260200191505060405180910390f35b6104866004803603604081101561045057600080fd5b81019080803573ffffffffffffffffffffffffffffffffffffffff16906020019092919080359060200190929190505050611397565b005b61054b6004803603604081101561049e57600080fd5b8101908080359060200190929190803590602001906401000000008111156104c557600080fd5b8201836020820111156104d757600080fd5b803590602001918460018302840111640100000000831117156104f957600080fd5b91908080601f016020809104026020016040519081016040528093929190818152602001838380828437600081840152601f19601f8201169050808301925050505050505091929192905050506114db565b005b61055561154f565b6040518082815260200191505060405180910390f35b6105d76004803603606081101561058157600080fd5b81019080803573ffffffffffffffffffffffffffffffffffffffff169060200190929190803573ffffffffffffffffffffffffffffffffffffffff16906020019092919080359060200190929190505050611560565b005b610625600480360360408110156105ef57600080fd5b81019080803573ffffffffffffffffffffffffffffffffffffffff169060200190929190803590602001909291905050506115d6565b6040518082815260200191505060405180910390f35b610643611631565b604051808273ffffffffffffffffffffffffffffffffffffffff1673ffffffffffffffffffffffffffffffffffffffff16815260200191505060405180910390f35b6106b16004803603602081101561069b57600080fd5b8101908080359060200190929190505050611657565b6040518080602001828103825283818151815260200191508051906020019080838360005b838110156106f15780820151818401526020810190506106d6565b50505050905090810190601f16801561071e5780820380516001836020036101000a031916815260200191505b509250505060405180910390f35b610734611669565b6040518082815260200191505060405180910390f35b6107b66004803603606081101561076057600080fd5b81019080803573ffffffffffffffffffffffffffffffffffffffff169060200190929190803573ffffffffffffffffffffffffffffffffffffffff1690602001909291908035906020019092919050505061166f565b005b6107e4600480360360208110156107ce57600080fd5b810190808035906020019092919050505061168f565b6040518086815260200185815260200184815260200183815260200180602001828103825283818151815260200191508051906020019080838360005b8381101561083c578082015181840152602081019050610821565b50505050905090810190601f1680156108695780820380516001836020036101000a031916815260200191505b50965050505050505060405180910390f35b6108a76004803603602081101561089157600080fd5b810190808035906020019092919050505061176a565b6040518082815260200191505060405180910390f35b6108c561178d565b604051808273ffffffffffffffffffffffffffffffffffffffff1673ffffffffffffffffffffffffffffffffffffffff16815260200191505060405180910390f35b6109336004803603602081101561091d57600080fd5b81019080803590602001909291905050506117b3565b6040518080602001858152602001848152602001838152602001828103825286818151815260200191508051906020019080838360005b8381101561098557808201518184015260208101905061096a565b50505050905090810190601f1680156109b25780820380516001836020036101000a031916815260200191505b509550505050505060405180910390f35b6109cb61190a565b6040518082815260200191505060405180910390f35b610a0d600480360360208110156109f757600080fd5b8101908080359060200190929190505050611917565b604051808273ffffffffffffffffffffffffffffffffffffffff1673ffffffffffffffffffffffffffffffffffffffff16815260200191505060405180910390f35b610a5761194e565b6040518080602001828103825283818151815260200191508051906020019080838360005b83811015610a97578082015181840152602081019050610a7c565b50505050905090810190601f168015610ac45780820380516001836020036101000a031916815260200191505b509250505060405180910390f35b610afe60048036036020811015610ae857600080fd5b81019080803590602001909291905050506119f0565b6040518085815260200184815260200183815260200182815260200194505050505060405180910390f35b610b6b60048036036020811015610b3f57600080fd5b81019080803573ffffffffffffffffffffffffffffffffffffffff169060200190929190505050611a81565b6040518082815260200191505060405180910390f35b610b89611b56565b005b610bb760048036036020811015610ba157600080fd5b8101908080359060200190929190505050611cc6565b6040518082815260200191505060405180910390f35b610bd5611cf6565b604051808273ffffffffffffffffffffffffffffffffffffffff1673ffffffffffffffffffffffffffffffffffffffff16815260200191505060405180910390f35b610c4d60048036036040811015610c2d57600080fd5b810190808035906020019092919080359060200190929190505050611d20565b005b610c57611df1565b6040518080602001828103825283818151815260200191508051906020019080838360005b83811015610c97578082015181840152602081019050610c7c565b50505050905090810190601f168015610cc45780820380516001836020036101000a031916815260200191505b509250505060405180910390f35b610cfe60048036036020811015610ce857600080fd5b8101908080359060200190929190505050611e93565b6040518082815260200191505060405180910390f35b610d6260048036036040811015610d2a57600080fd5b81019080803573ffffffffffffffffffffffffffffffffffffffff169060200190929190803515159060200190929190505050611eab565b005b610e6760048036036080811015610d7a57600080fd5b81019080803573ffffffffffffffffffffffffffffffffffffffff169060200190929190803573ffffffffffffffffffffffffffffffffffffffff1690602001909291908035906020019092919080359060200190640100000000811115610de157600080fd5b820183602082011115610df357600080fd5b80359060200191846001830284011164010000000083111715610e1557600080fd5b91908080601f016020809104026020016040519081016040528093929190818152602001838380828437600081840152601f19601f820116905080830192505050505050509192919290505050612063565b005b610e9560048036036020811015610e7f57600080fd5b81019080803590602001909291905050506120db565b6040518080602001828103825283818151815260200191508051906020019080838360005b83811015610ed5578082015181840152602081019050610eba565b50505050905090810190601f168015610f025780820380516001836020036101000a031916815260200191505b509250505060405180910390f35b610f5060048036036060811015610f2657600080fd5b810190808035906020019092919080359060200190929190803590602001909291905050506123ac565b6040518082815260200191505060405180910390f35b610fc860048036036040811015610f7c57600080fd5b81019080803573ffffffffffffffffffffffffffffffffffffffff169060200190929190803573ffffffffffffffffffffffffffffffffffffffff1690602001909291905050506125be565b604051808215151515815260200191505060405180910390f35b61102460048036036020811015610ff857600080fd5b81019080803573ffffffffffffffffffffffffffffffffffffffff169060200190929190505050612652565b005b6000806000837bffffffffffffffffffffffffffffffffffffffffffffffffffffffff19167bffffffffffffffffffffffffffffffffffffffffffffffffffffffff1916815260200190815260200160002060009054906101000a900460ff169050919050565b6000600f54600a60009054906101000a900473ffffffffffffffffffffffffffffffffffffffff1673ffffffffffffffffffffffffffffffffffffffff166370a08231306040518263ffffffff1660e01b8152600401808273ffffffffffffffffffffffffffffffffffffffff1673ffffffffffffffffffffffffffffffffffffffff16815260200191505060206040518083038186803b15801561113157600080fd5b505afa158015611145573d6000803e3d6000fd5b505050506040513d602081101561115b57600080fd5b810190808051906020019092919050505010156111c3576040517f08c379a000000000000000000000000000000000000000000000000000000000815260040180806020018281038252602b815260200180614071602b913960400191505060405180910390fd5b60006111d4600e54600f54866123ac565b9050826014600083815260200190815260200160002090805190602001906111fd929190613f2d565b50336015600083815260200190815260200160002060006101000a81548173ffffffffffffffffffffffffffffffffffffffff021916908373ffffffffffffffffffffffffffffffffffffffff1602179055508091505092915050565b606060068054600181600116156101000203166002900480601f0160208091040260200160405190810160405280929190818152602001828054600181600116156101000203166002900480156112f25780601f106112c7576101008083540402835291602001916112f2565b820191906000526020600020905b8154815290600101906020018083116112d557829003601f168201915b5050505050905090565b600061130782612847565b61135c576040517f08c379a000000000000000000000000000000000000000000000000000000000815260040180806020018281038252602c81526020018061419b602c913960400191505060405180910390fd5b6004600083815260200190815260200160002060009054906101000a900473ffffffffffffffffffffffffffffffffffffffff169050919050565b60006113a282611917565b90508073ffffffffffffffffffffffffffffffffffffffff168373ffffffffffffffffffffffffffffffffffffffff161415611429576040517f08c379a000000000000000000000000000000000000000000000000000000000815260040180806020018281038252602181526020018061424b6021913960400191505060405180910390fd5b8073ffffffffffffffffffffffffffffffffffffffff16611448612864565b73ffffffffffffffffffffffffffffffffffffffff161480611477575061147681611471612864565b6125be565b5b6114cc576040517f08c379a00000000000000000000000000000000000000000000000000000000081526004018080602001828103825260388152602001806140ee6038913960400191505060405180910390fd5b6114d6838361286c565b505050565b6114ec6114e6612864565b83612925565b611541576040517f08c379a000000000000000000000000000000000000000000000000000000000815260040180806020018281038252603181526020018061426c6031913960400191505060405180910390fd5b61154b8282612a19565b5050565b600061155b6002612aa3565b905090565b61157161156b612864565b82612925565b6115c6576040517f08c379a000000000000000000000000000000000000000000000000000000000815260040180806020018281038252603181526020018061426c6031913960400191505060405180910390fd5b6115d1838383612ab8565b505050565b600061162982600160008673ffffffffffffffffffffffffffffffffffffffff1673ffffffffffffffffffffffffffffffffffffffff168152602001908152602001600020612cfb90919063ffffffff16565b905092915050565b601160009054906101000a900473ffffffffffffffffffffffffffffffffffffffff1681565b6060611662826120db565b9050919050565b60105481565b61168a83838360405180602001604052806000815250612063565b505050565b6013818154811061169c57fe5b9060005260206000209060050201600091509050806000015490806001015490806002015490806003015490806004018054600181600116156101000203166002900480601f0160208091040260200160405190810160405280929190818152602001828054600181600116156101000203166002900480156117605780601f1061173557610100808354040283529160200191611760565b820191906000526020600020905b81548152906001019060200180831161174357829003601f168201915b5050505050905085565b600080611781836002612d1590919063ffffffff16565b50905080915050919050565b601260009054906101000a900473ffffffffffffffffffffffffffffffffffffffff1681565b60606000806000601385815481106117c757fe5b9060005260206000209060050201600401601386815481106117e557fe5b9060005260206000209060050201600201546013878154811061180457fe5b9060005260206000209060050201600101546013888154811061182357fe5b906000526020600020906005020160000154010161184087611cc6565b6013888154811061184d57fe5b906000526020600020906005020160030154838054600181600116156101000203166002900480601f0160208091040260200160405190810160405280929190818152602001828054600181600116156101000203166002900480156118f45780601f106118c9576101008083540402835291602001916118f4565b820191906000526020600020905b8154815290600101906020018083116118d757829003601f168201915b5050505050935093509350935093509193509193565b6000601380549050905090565b600061194782604051806060016040528060298152602001614150602991396002612d449092919063ffffffff16565b9050919050565b606060098054600181600116156101000203166002900480601f0160208091040260200160405190810160405280929190818152602001828054600181600116156101000203166002900480156119e65780601f106119bb576101008083540402835291602001916119e6565b820191906000526020600020905b8154815290600101906020018083116119c957829003601f168201915b5050505050905090565b60008060008060138581548110611a0357fe5b90600052602060002090600502016000015460138681548110611a2257fe5b90600052602060002090600502016001015460138781548110611a4157fe5b90600052602060002090600502016002015460138881548110611a6057fe5b90600052602060002090600502016003015493509350935093509193509193565b60008073ffffffffffffffffffffffffffffffffffffffff168273ffffffffffffffffffffffffffffffffffffffff161415611b08576040517f08c379a000000000000000000000000000000000000000000000000000000000815260040180806020018281038252602a815260200180614126602a913960400191505060405180910390fd5b611b4f600160008473ffffffffffffffffffffffffffffffffffffffff1673ffffffffffffffffffffffffffffffffffffffff168152602001908152602001600020612d63565b9050919050565b611b5e612864565b73ffffffffffffffffffffffffffffffffffffffff16611b7c611cf6565b73ffffffffffffffffffffffffffffffffffffffff1614611c05576040517f08c379a00000000000000000000000000000000000000000000000000000000081526004018080602001828103825260208152602001807f4f776e61626c653a2063616c6c6572206973206e6f7420746865206f776e657281525060200191505060405180910390fd5b600073ffffffffffffffffffffffffffffffffffffffff16600d60009054906101000a900473ffffffffffffffffffffffffffffffffffffffff1673ffffffffffffffffffffffffffffffffffffffff167f8be0079c531659141344cd1fd0a4f28419497f9722a3daafe3b4186f6b6457e060405160405180910390a36000600d60006101000a81548173ffffffffffffffffffffffffffffffffffffffff021916908373ffffffffffffffffffffffffffffffffffffffff160217905550565b6000611cef60138381548110611cd857fe5b906000526020600020906005020160030154612d78565b9050919050565b6000600d60009054906101000a900473ffffffffffffffffffffffffffffffffffffffff16905090565b600b60009054906101000a900473ffffffffffffffffffffffffffffffffffffffff1673ffffffffffffffffffffffffffffffffffffffff163373ffffffffffffffffffffffffffffffffffffffff1614611de3576040517f08c379a000000000000000000000000000000000000000000000000000000000815260040180806020018281038252601f8152602001807f4f6e6c7920565246436f6f7264696e61746f722063616e2066756c66696c6c0081525060200191505060405180910390fd5b611ded8282612dbd565b5050565b606060078054600181600116156101000203166002900480601f016020809104026020016040519081016040528092919081815260200182805460018160011615610100020316600290048015611e895780601f10611e5e57610100808354040283529160200191611e89565b820191906000526020600020905b815481529060010190602001808311611e6c57829003601f168201915b5050505050905090565b600c6020528060005260406000206000915090505481565b611eb3612864565b73ffffffffffffffffffffffffffffffffffffffff168273ffffffffffffffffffffffffffffffffffffffff161415611f54576040517f08c379a00000000000000000000000000000000000000000000000000000000081526004018080602001828103825260198152602001807f4552433732313a20617070726f766520746f2063616c6c65720000000000000081525060200191505060405180910390fd5b8060056000611f61612864565b73ffffffffffffffffffffffffffffffffffffffff1673ffffffffffffffffffffffffffffffffffffffff16815260200190815260200160002060008473ffffffffffffffffffffffffffffffffffffffff1673ffffffffffffffffffffffffffffffffffffffff16815260200190815260200160002060006101000a81548160ff0219169083151502179055508173ffffffffffffffffffffffffffffffffffffffff1661200e612864565b73ffffffffffffffffffffffffffffffffffffffff167f17307eab39ab6107e8899845ad3d59bd9653f200f220920489ca2b5937696c3183604051808215151515815260200191505060405180910390a35050565b61207461206e612864565b83612925565b6120c9576040517f08c379a000000000000000000000000000000000000000000000000000000000815260040180806020018281038252603181526020018061426c6031913960400191505060405180910390fd5b6120d584848484612f9b565b50505050565b60606120e682612847565b61213b576040517f08c379a000000000000000000000000000000000000000000000000000000000815260040180806020018281038252602f81526020018061421c602f913960400191505060405180910390fd5b6060600860008481526020019081526020016000208054600181600116156101000203166002900480601f0160208091040260200160405190810160405280929190818152602001828054600181600116156101000203166002900480156121e45780601f106121b9576101008083540402835291602001916121e4565b820191906000526020600020905b8154815290600101906020018083116121c757829003601f168201915b5050505050905060606121f561194e565b905060008151141561220b5781925050506123a7565b6000825111156122dc5780826040516020018083805190602001908083835b6020831061224d578051825260208201915060208101905060208303925061222a565b6001836020036101000a03801982511681845116808217855250505050505090500182805190602001908083835b6020831061229e578051825260208201915060208101905060208303925061227b565b6001836020036101000a03801982511681845116808217855250505050505090500192505050604051602081830303815290604052925050506123a7565b806122e68561300d565b6040516020018083805190602001908083835b6020831061231c57805182526020820191506020810190506020830392506122f9565b6001836020036101000a03801982511681845116808217855250505050505090500182805190602001908083835b6020831061236d578051825260208201915060208101905060208303925061234a565b6001836020036101000a03801982511681845116808217855250505050505090500192505050604051602081830303815290604052925050505b919050565b6000600a60009054906101000a900473ffffffffffffffffffffffffffffffffffffffff1673ffffffffffffffffffffffffffffffffffffffff16634000aea0600b60009054906101000a900473ffffffffffffffffffffffffffffffffffffffff1685878660405160200180838152602001828152602001925050506040516020818303038152906040526040518463ffffffff1660e01b8152600401808473ffffffffffffffffffffffffffffffffffffffff1673ffffffffffffffffffffffffffffffffffffffff16815260200183815260200180602001828103825283818151815260200191508051906020019080838360005b838110156124bf5780820151818401526020810190506124a4565b50505050905090810190601f1680156124ec5780820380516001836020036101000a031916815260200191505b50945050505050602060405180830381600087803b15801561250d57600080fd5b505af1158015612521573d6000803e3d6000fd5b505050506040513d602081101561253757600080fd5b810190808051906020019092919050505050600061256a858430600c60008a815260200190815260200160002054613154565b90506125936001600c6000888152602001908152602001600020546131ce90919063ffffffff16565b600c6000878152602001908152602001600020819055506125b48582613256565b9150509392505050565b6000600560008473ffffffffffffffffffffffffffffffffffffffff1673ffffffffffffffffffffffffffffffffffffffff16815260200190815260200160002060008373ffffffffffffffffffffffffffffffffffffffff1673ffffffffffffffffffffffffffffffffffffffff16815260200190815260200160002060009054906101000a900460ff16905092915050565b61265a612864565b73ffffffffffffffffffffffffffffffffffffffff16612678611cf6565b73ffffffffffffffffffffffffffffffffffffffff1614612701576040517f08c379a00000000000000000000000000000000000000000000000000000000081526004018080602001828103825260208152602001807f4f776e61626c653a2063616c6c6572206973206e6f7420746865206f776e657281525060200191505060405180910390fd5b600073ffffffffffffffffffffffffffffffffffffffff168173ffffffffffffffffffffffffffffffffffffffff161415612787576040517f08c379a00000000000000000000000000000000000000000000000000000000081526004018080602001828103825260268152602001806140276026913960400191505060405180910390fd5b8073ffffffffffffffffffffffffffffffffffffffff16600d60009054906101000a900473ffffffffffffffffffffffffffffffffffffffff1673ffffffffffffffffffffffffffffffffffffffff167f8be0079c531659141344cd1fd0a4f28419497f9722a3daafe3b4186f6b6457e060405160405180910390a380600d60006101000a81548173ffffffffffffffffffffffffffffffffffffffff021916908373ffffffffffffffffffffffffffffffffffffffff16021790555050565b600061285d82600261328f90919063ffffffff16565b9050919050565b600033905090565b816004600083815260200190815260200160002060006101000a81548173ffffffffffffffffffffffffffffffffffffffff021916908373ffffffffffffffffffffffffffffffffffffffff160217905550808273ffffffffffffffffffffffffffffffffffffffff166128df83611917565b73ffffffffffffffffffffffffffffffffffffffff167f8c5be1e5ebec7d5bd14f71427d1e84f3dd0314c0f7b2291e5b200ac8c7c3b92560405160405180910390a45050565b600061293082612847565b612985576040517f08c379a000000000000000000000000000000000000000000000000000000000815260040180806020018281038252602c8152602001806140c2602c913960400191505060405180910390fd5b600061299083611917565b90508073ffffffffffffffffffffffffffffffffffffffff168473ffffffffffffffffffffffffffffffffffffffff1614806129ff57508373ffffffffffffffffffffffffffffffffffffffff166129e7846112fc565b73ffffffffffffffffffffffffffffffffffffffff16145b80612a105750612a0f81856125be565b5b91505092915050565b612a2282612847565b612a77576040517f08c379a000000000000000000000000000000000000000000000000000000000815260040180806020018281038252602c8152602001806141c7602c913960400191505060405180910390fd5b80600860008481526020019081526020016000209080519060200190612a9e929190613f2d565b505050565b6000612ab1826000016132a9565b9050919050565b8273ffffffffffffffffffffffffffffffffffffffff16612ad882611917565b73ffffffffffffffffffffffffffffffffffffffff1614612b44576040517f08c379a00000000000000000000000000000000000000000000000000000000081526004018080602001828103825260298152602001806141f36029913960400191505060405180910390fd5b600073ffffffffffffffffffffffffffffffffffffffff168273ffffffffffffffffffffffffffffffffffffffff161415612bca576040517f08c379a000000000000000000000000000000000000000000000000000000000815260040180806020018281038252602481526020018061404d6024913960400191505060405180910390fd5b612bd58383836132ba565b612be060008261286c565b612c3181600160008673ffffffffffffffffffffffffffffffffffffffff1673ffffffffffffffffffffffffffffffffffffffff1681526020019081526020016000206132bf90919063ffffffff16565b50612c8381600160008573ffffffffffffffffffffffffffffffffffffffff1673ffffffffffffffffffffffffffffffffffffffff1681526020019081526020016000206132d990919063ffffffff16565b50612c9a818360026132f39092919063ffffffff16565b50808273ffffffffffffffffffffffffffffffffffffffff168473ffffffffffffffffffffffffffffffffffffffff167fddf252ad1be2c89b69c2b068fc378daa952ba7f163c4a11628f55a4df523b3ef60405160405180910390a4505050565b6000612d0a8360000183613328565b60001c905092915050565b600080600080612d2886600001866133ab565b915091508160001c8160001c8090509350935050509250929050565b6000612d57846000018460001b84613444565b60001c90509392505050565b6000612d718260000161353a565b9050919050565b60008060026001840181612d8857fe5b0490508291505b81811015612db757809150600281828581612da657fe5b040181612daf57fe5b049050612d8f565b50919050565b60006013805490509050600060648381612dd357fe5b069050600060646127108581612de557fe5b0681612ded57fe5b0490506000612710620f42408681612e0157fe5b0681612e0957fe5b049050600080905060136040518060a00160405280868152602001858152602001848152602001838152602001601460008b81526020019081526020016000208054600181600116156101000203166002900480601f016020809104026020016040519081016040528092919081815260200182805460018160011615610100020316600290048015612edd5780601f10612eb257610100808354040283529160200191612edd565b820191906000526020600020905b815481529060010190602001808311612ec057829003601f168201915b50505050508152509080600181540180825580915050600190039060005260206000209060050201600090919091909150600082015181600001556020820151816001015560408201518160020155606082015181600301556080820151816004019080519060200190612f52929190613f2d565b505050612f926015600089815260200190815260200160002060009054906101000a900473ffffffffffffffffffffffffffffffffffffffff168661354b565b50505050505050565b612fa6848484612ab8565b612fb284848484613569565b613007576040517f08c379a0000000000000000000000000000000000000000000000000000000008152600401808060200182810382526032815260200180613ff56032913960400191505060405180910390fd5b50505050565b60606000821415613055576040518060400160405280600181526020017f3000000000000000000000000000000000000000000000000000000000000000815250905061314f565b600082905060005b6000821461307f578080600101915050600a828161307757fe5b04915061305d565b60608167ffffffffffffffff8111801561309857600080fd5b506040519080825280601f01601f1916602001820160405280156130cb5781602001600182028036833780820191505090505b50905060006001830390508593505b6000841461314757600a84816130ec57fe5b0660300160f81b8282806001900393508151811061310657fe5b60200101907effffffffffffffffffffffffffffffffffffffffffffffffffffffffffffff1916908160001a905350600a848161313f57fe5b0493506130da565b819450505050505b919050565b600084848484604051602001808581526020018481526020018373ffffffffffffffffffffffffffffffffffffffff1673ffffffffffffffffffffffffffffffffffffffff1681526020018281526020019450505050506040516020818303038152906040528051906020012060001c9050949350505050565b60008082840190508381101561324c576040517f08c379a000000000000000000000000000000000000000000000000000000000815260040180806020018281038252601b8152602001807f536166654d6174683a206164646974696f6e206f766572666c6f77000000000081525060200191505060405180910390fd5b8091505092915050565b60008282604051602001808381526020018281526020019250505060405160208183030381529060405280519060200120905092915050565b60006132a1836000018360001b6137ae565b905092915050565b600081600001805490509050919050565b505050565b60006132d1836000018360001b6137d1565b905092915050565b60006132eb836000018360001b6138b9565b905092915050565b600061331f846000018460001b8473ffffffffffffffffffffffffffffffffffffffff1660001b613929565b90509392505050565b600081836000018054905011613389576040517f08c379a0000000000000000000000000000000000000000000000000000000008152600401808060200182810382526022815260200180613fd36022913960400191505060405180910390fd5b82600001828154811061339857fe5b9060005260206000200154905092915050565b6000808284600001805490501161340d576040517f08c379a00000000000000000000000000000000000000000000000000000000081526004018080602001828103825260228152602001806141796022913960400191505060405180910390fd5b600084600001848154811061341e57fe5b906000526020600020906002020190508060000154816001015492509250509250929050565b6000808460010160008581526020019081526020016000205490506000811415839061350b576040517f08c379a00000000000000000000000000000000000000000000000000000000081526004018080602001828103825283818151815260200191508051906020019080838360005b838110156134d05780820151818401526020810190506134b5565b50505050905090810190601f1680156134fd5780820380516001836020036101000a031916815260200191505b509250505060405180910390fd5b5084600001600182038154811061351e57fe5b9060005260206000209060020201600101549150509392505050565b600081600001805490509050919050565b613565828260405180602001604052806000815250613a05565b5050565b600061358a8473ffffffffffffffffffffffffffffffffffffffff16613a76565b61359757600190506137a6565b606061372d63150b7a0260e01b6135ac612864565b888787604051602401808573ffffffffffffffffffffffffffffffffffffffff1673ffffffffffffffffffffffffffffffffffffffff1681526020018473ffffffffffffffffffffffffffffffffffffffff1673ffffffffffffffffffffffffffffffffffffffff16815260200183815260200180602001828103825283818151815260200191508051906020019080838360005b8381101561365c578082015181840152602081019050613641565b50505050905090810190601f1680156136895780820380516001836020036101000a031916815260200191505b5095505050505050604051602081830303815290604052907bffffffffffffffffffffffffffffffffffffffffffffffffffffffff19166020820180517bffffffffffffffffffffffffffffffffffffffffffffffffffffffff8381831617835250505050604051806060016040528060328152602001613ff5603291398773ffffffffffffffffffffffffffffffffffffffff16613a899092919063ffffffff16565b9050600081806020019051602081101561374657600080fd5b8101908080519060200190929190505050905063150b7a0260e01b7bffffffffffffffffffffffffffffffffffffffffffffffffffffffff1916817bffffffffffffffffffffffffffffffffffffffffffffffffffffffff191614925050505b949350505050565b600080836001016000848152602001908152602001600020541415905092915050565b600080836001016000848152602001908152602001600020549050600081146138ad576000600182039050600060018660000180549050039050600086600001828154811061381c57fe5b906000526020600020015490508087600001848154811061383957fe5b906000526020600020018190555060018301876001016000838152602001908152602001600020819055508660000180548061387157fe5b600190038181906000526020600020016000905590558660010160008781526020019081526020016000206000905560019450505050506138b3565b60009150505b92915050565b60006138c58383613aa1565b61391e578260000182908060018154018082558091505060019003906000526020600020016000909190919091505582600001805490508360010160008481526020019081526020016000208190555060019050613923565b600090505b92915050565b60008084600101600085815260200190815260200160002054905060008114156139d0578460000160405180604001604052808681526020018581525090806001815401808255809150506001900390600052602060002090600202016000909190919091506000820151816000015560208201518160010155505084600001805490508560010160008681526020019081526020016000208190555060019150506139fe565b828560000160018303815481106139e357fe5b90600052602060002090600202016001018190555060009150505b9392505050565b613a0f8383613ac4565b613a1c6000848484613569565b613a71576040517f08c379a0000000000000000000000000000000000000000000000000000000008152600401808060200182810382526032815260200180613ff56032913960400191505060405180910390fd5b505050565b600080823b905060008111915050919050565b6060613a988484600085613cb8565b90509392505050565b600080836001016000848152602001908152602001600020541415905092915050565b600073ffffffffffffffffffffffffffffffffffffffff168273ffffffffffffffffffffffffffffffffffffffff161415613b67576040517f08c379a00000000000000000000000000000000000000000000000000000000081526004018080602001828103825260208152602001807f4552433732313a206d696e7420746f20746865207a65726f206164647265737381525060200191505060405180910390fd5b613b7081612847565b15613be3576040517f08c379a000000000000000000000000000000000000000000000000000000000815260040180806020018281038252601c8152602001807f4552433732313a20746f6b656e20616c7265616479206d696e7465640000000081525060200191505060405180910390fd5b613bef600083836132ba565b613c4081600160008573ffffffffffffffffffffffffffffffffffffffff1673ffffffffffffffffffffffffffffffffffffffff1681526020019081526020016000206132d990919063ffffffff16565b50613c57818360026132f39092919063ffffffff16565b50808273ffffffffffffffffffffffffffffffffffffffff16600073ffffffffffffffffffffffffffffffffffffffff167fddf252ad1be2c89b69c2b068fc378daa952ba7f163c4a11628f55a4df523b3ef60405160405180910390a45050565b606082471015613d13576040517f08c379a000000000000000000000000000000000000000000000000000000000815260040180806020018281038252602681526020018061409c6026913960400191505060405180910390fd5b613d1c85613a76565b613d8e576040517f08c379a000000000000000000000000000000000000000000000000000000000815260040180806020018281038252601d8152602001807f416464726573733a2063616c6c20746f206e6f6e2d636f6e747261637400000081525060200191505060405180910390fd5b600060608673ffffffffffffffffffffffffffffffffffffffff1685876040518082805190602001908083835b60208310613dde5780518252602082019150602081019050602083039250613dbb565b6001836020036101000a03801982511681845116808217855250505050505090500191505060006040518083038185875af1925050503d8060008114613e40576040519150601f19603f3d011682016040523d82523d6000602084013e613e45565b606091505b5091509150613e55828286613e61565b92505050949350505050565b60608315613e7157829050613f26565b600083511115613e845782518084602001fd5b816040517f08c379a00000000000000000000000000000000000000000000000000000000081526004018080602001828103825283818151815260200191508051906020019080838360005b83811015613eeb578082015181840152602081019050613ed0565b50505050905090810190601f168015613f185780820380516001836020036101000a031916815260200191505b509250505060405180910390fd5b9392505050565b828054600181600116156101000203166002900490600052602060002090601f016020900481019282601f10613f6e57805160ff1916838001178555613f9c565b82800160010185558215613f9c579182015b82811115613f9b578251825591602001919060010190613f80565b5b509050613fa99190613fad565b5090565b613fcf91905b80821115613fcb576000816000905550600101613fb3565b5090565b9056fe456e756d657261626c655365743a20696e646578206f7574206f6620626f756e64734552433732313a207472616e7366657220746f206e6f6e20455243373231526563656976657220696d706c656d656e7465724f776e61626c653a206e6577206f776e657220697320746865207a65726f20616464726573734552433732313a207472616e7366657220746f20746865207a65726f20616464726573734e6f7420656e6f756768204c494e4b202d2066696c6c20636f6e7472616374207769746820666175636574416464726573733a20696e73756666696369656e742062616c616e636520666f722063616c6c4552433732313a206f70657261746f7220717565727920666f72206e6f6e6578697374656e7420746f6b656e4552433732313a20617070726f76652063616c6c6572206973206e6f74206f776e6572206e6f7220617070726f76656420666f7220616c6c4552433732313a2062616c616e636520717565727920666f7220746865207a65726f20616464726573734552433732313a206f776e657220717565727920666f72206e6f6e6578697374656e7420746f6b656e456e756d657261626c654d61703a20696e646578206f7574206f6620626f756e64734552433732313a20617070726f76656420717565727920666f72206e6f6e6578697374656e7420746f6b656e4552433732314d657461646174613a2055524920736574206f66206e6f6e6578697374656e7420746f6b656e4552433732313a207472616e73666572206f6620746f6b656e2074686174206973206e6f74206f776e4552433732314d657461646174613a2055524920717565727920666f72206e6f6e6578697374656e7420746f6b656e4552433732313a20617070726f76616c20746f2063757272656e74206f776e65724552433732313a207472616e736665722063616c6c6572206973206e6f74206f776e6572206e6f7220617070726f766564a2646970667358221220239d32226fa4301042e0ef2da795262ff7b540b7739495a807ed0b47de81931164736f6c63430006060033",
  "immutableReferences": {},
  "source": "// contracts/SumoPets.sol\n// SPDX-License-Identifier: MIT\npragma solidity ^0.6.6;\n\nimport \"@openzeppelin/contracts/token/ERC721/ERC721.sol\";\nimport \"@chainlink/contracts/src/v0.6/VRFConsumerBase.sol\";\nimport \"@openzeppelin/contracts/access/Ownable.sol\";\nimport \"@openzeppelin/contracts/utils/Strings.sol\";\n\ncontract SumoPets is ERC721, VRFConsumerBase, Ownable {\n    using SafeMath for uint256;\n    using Strings for string;\n\n    bytes32 internal keyHash;\n    uint256 internal fee;\n    uint256 public randomResult;\n    address public VRFCoordinator;\n    // rinkeby: 0xb3dCcb4Cf7a26f6cf6B120Cf5A73875B7BBc655B\n    address public LinkToken;\n    // rinkeby: 0x01BE23585060835E02B77ef475b0Cc51aA1e0709a\n\n    struct Character {\n        uint256 weight;\n        uint256 squishiness;\n        uint256 hunger;\n        uint256 experience;\n        string name;\n    }\n\n    Character[] public characters;\n\n    mapping(bytes32 => string) requestToCharacterName;\n    mapping(bytes32 => address) requestToSender;\n    mapping(bytes32 => uint256) requestToTokenId;\n\n    /**\n     * Constructor inherits VRFConsumerBase\n     *\n     * Network: Rinkeby\n     * Chainlink VRF Coordinator address: 0xb3dCcb4Cf7a26f6cf6B120Cf5A73875B7BBc655B\n     * LINK token address:                0x01BE23585060835E02B77ef475b0Cc51aA1e0709\n     * Key Hash: 0x2ed0feb3e7fd2022120aa84fab1945545a9f2ffc9076fd6156fa96eaff4c1311\n     */\n    constructor(address _VRFCoordinator, address _LinkToken, bytes32 _keyhash)\n        public\n        VRFConsumerBase(_VRFCoordinator, _LinkToken)\n        ERC721(\"SumoPets\", \"SUMO\")\n    {   \n        VRFCoordinator = _VRFCoordinator;\n        LinkToken = _LinkToken;\n        keyHash = _keyhash;\n        fee = 0.1 * 10**18; // 0.1 LINK\n    }\n\n    function requestNewRandomCharacter(\n        uint256 userProvidedSeed,\n        string memory name\n    ) public returns (bytes32) {\n        require(\n            LINK.balanceOf(address(this)) >= fee,\n            \"Not enough LINK - fill contract with faucet\"\n        );\n        bytes32 requestId = requestRandomness(keyHash, fee, userProvidedSeed);\n        requestToCharacterName[requestId] = name;\n        requestToSender[requestId] = msg.sender;\n        return requestId;\n    }\n\n    function getTokenURI(uint256 tokenId) public view returns (string memory) {\n        return tokenURI(tokenId);\n    }\n\n    function setTokenURI(uint256 tokenId, string memory _tokenURI) public {\n        require(\n            _isApprovedOrOwner(_msgSender(), tokenId),\n            \"ERC721: transfer caller is not owner nor approved\"\n        );\n        _setTokenURI(tokenId, _tokenURI);\n    }\n\n    function fulfillRandomness(bytes32 requestId, uint256 randomNumber)\n        internal\n        override\n    {\n        uint256 newId = characters.length;\n        uint256 weight = (randomNumber % 100);\n        uint256 squishiness = ((randomNumber % 10000) / 100 );\n        uint256 hunger = ((randomNumber % 1000000) / 10000 );\n        uint256 experience = 0;\n\n        characters.push(\n            Character(\n                weight,\n                squishiness,\n                hunger,\n                experience,\n                requestToCharacterName[requestId]\n            )\n        );\n        _safeMint(requestToSender[requestId], newId);\n    }\n\n    function getLevel(uint256 tokenId) public view returns (uint256) {\n        return sqrt(characters[tokenId].experience);\n    }\n\n    function getNumberOfCharacters() public view returns (uint256) {\n        return characters.length; \n    }\n\n    function getCharacterOverView(uint256 tokenId)\n        public\n        view\n        returns (\n            string memory,\n            uint256,\n            uint256,\n            uint256\n        )\n    {\n        return (\n            characters[tokenId].name,\n            characters[tokenId].weight + characters[tokenId].squishiness + characters[tokenId].hunger,\n            getLevel(tokenId),\n            characters[tokenId].experience\n        );\n    }\n\n    function getCharacterStats(uint256 tokenId)\n        public\n        view\n        returns (\n            uint256,\n            uint256,\n            uint256,\n            uint256\n        )\n    {\n        return (\n            characters[tokenId].weight,\n            characters[tokenId].squishiness,\n            characters[tokenId].hunger,\n            characters[tokenId].experience\n        );\n    }\n\n    function sqrt(uint256 x) internal view returns (uint256 y) {\n        uint256 z = (x + 1) / 2;\n        y = x;\n        while (z < y) {\n            y = z;\n            z = (x / z + z) / 2;\n        }\n    }\n}\n",
  "sourcePath": "/Users/angela/Hackathon/Angela/SumoPets/contracts/SumoPets.sol",
  "compiler": {
    "name": "solc",
    "version": "0.6.6+commit.6c089d02.Emscripten.clang"
  },
  "schemaVersion": "3.3.4",
  "updatedAt": "2021-04-10T18:49:48.019Z",
  "networkType": "ethereum",
  "devdoc": {
    "methods": {
      "approve(address,uint256)": {
        "details": "See {IERC721-approve}."
      },
      "balanceOf(address)": {
        "details": "See {IERC721-balanceOf}."
      },
      "baseURI()": {
        "details": "Returns the base URI set via {_setBaseURI}. This will be automatically added as a prefix in {tokenURI} to each token's URI, or to the token ID if no specific URI is set for that token ID."
      },
      "getApproved(uint256)": {
        "details": "See {IERC721-getApproved}."
      },
      "isApprovedForAll(address,address)": {
        "details": "See {IERC721-isApprovedForAll}."
      },
      "name()": {
        "details": "See {IERC721Metadata-name}."
      },
      "owner()": {
        "details": "Returns the address of the current owner."
      },
      "ownerOf(uint256)": {
        "details": "See {IERC721-ownerOf}."
      },
      "renounceOwnership()": {
        "details": "Leaves the contract without owner. It will not be possible to call `onlyOwner` functions anymore. Can only be called by the current owner.     * NOTE: Renouncing ownership will leave the contract without an owner, thereby removing any functionality that is only available to the owner."
      },
      "requestRandomness(bytes32,uint256,uint256)": {
        "details": "The source of the seed data must be something which the oraclecannot anticipate. See \"SECURITY CONSIDERATIONS\" above.The fulfillRandomness method receives the output, once it's providedby the Oracle, and verified by the vrfCoordinator.The _keyHash must already be registered with the VRFCoordinator, andthe _fee must exceed the fee specified during registration of the_keyHash.The returned requestId can be used to distinguish responses to *concurrent requests. It is passed as the first argument tofulfillRandomness.",
        "params": {
          "_fee": "The amount of LINK to send with the request",
          "_keyHash": "ID of public key against which randomness is generated",
          "_seed": "Random seed from which output randomness is determined"
        },
        "returns": {
          "requestId": "which will be returned with the response to this request"
        }
      },
      "safeTransferFrom(address,address,uint256)": {
        "details": "See {IERC721-safeTransferFrom}."
      },
      "safeTransferFrom(address,address,uint256,bytes)": {
        "details": "See {IERC721-safeTransferFrom}."
      },
      "setApprovalForAll(address,bool)": {
        "details": "See {IERC721-setApprovalForAll}."
      },
      "supportsInterface(bytes4)": {
        "details": "See {IERC165-supportsInterface}.     * Time complexity O(1), guaranteed to always use less than 30 000 gas."
      },
      "symbol()": {
        "details": "See {IERC721Metadata-symbol}."
      },
      "tokenByIndex(uint256)": {
        "details": "See {IERC721Enumerable-tokenByIndex}."
      },
      "tokenOfOwnerByIndex(address,uint256)": {
        "details": "See {IERC721Enumerable-tokenOfOwnerByIndex}."
      },
      "tokenURI(uint256)": {
        "details": "See {IERC721Metadata-tokenURI}."
      },
      "totalSupply()": {
        "details": "See {IERC721Enumerable-totalSupply}."
      },
      "transferFrom(address,address,uint256)": {
        "details": "See {IERC721-transferFrom}."
      },
      "transferOwnership(address)": {
        "details": "Transfers ownership of the contract to a new account (`newOwner`). Can only be called by the current owner."
      }
    }
  },
  "userdoc": {
    "methods": {
      "constructor": "Constructor inherits VRFConsumerBase     * Network: Rinkeby Chainlink VRF Coordinator address: 0xb3dCcb4Cf7a26f6cf6B120Cf5A73875B7BBc655B LINK token address:                0x01BE23585060835E02B77ef475b0Cc51aA1e0709 Key Hash: 0x2ed0feb3e7fd2022120aa84fab1945545a9f2ffc9076fd6156fa96eaff4c1311",
      "requestRandomness(bytes32,uint256,uint256)": {
        "notice": "requestRandomness initiates a request for VRF output given _seed"
      }
    }
  }
}